:020000040000fa
:080000000002040000000000f2
:020000040000fa
:040008009a03000057
:020000040000fa
:04000c009a03000053
:020000040000fa
:040010009a0300004f
:020000040000fa
:040014009a0300004b
:020000040000fa
:040018009a03000047
:020000040000fa
:04001c009a03000043
:020000040000fa
:040020009a0300003f
:020000040000fa
:040024009a0300003b
:020000040000fa
:040028009a03000037
:020000040000fa
:04002c009a03000033
:020000040000fa
:040030009a0300002f
:020000040000fa
:040034009a0300002b
:020000040000fa
:040038009a03000027
:020000040000fa
:04003c009a03000023
:020000040000fa
:040040009a0300001f
:020000040000fa
:04004400380300007d
:020000040000fa
:040048009a03000017
:020000040000fa
:04004c009a03000013
:020000040000fa
:040050009a0300000f
:020000040000fa
:04005400fa020000ac
:020000040000fa
:040058009a03000007
:020000040000fa
:04005c009a03000003
:020000040000fa
:040060009a030000ff
:020000040000fa
:040064009a030000fb
:020000040000fa
:040068009a030000f7
:020000040000fa
:04006c009a030000f3
:020000040000fa
:040070009a030000ef
:020000040000fa
:040074009a030000eb
:020000040000fa
:040078009a030000e7
:020000040000fa
:04007c009a030000e3
:020000040000fa
:040080009a030000df
:020000040000fa
:040084004003000035
:020000040000fa
:040088009a030000d7
:020000040000fa
:04008c009a030000d3
:020000040000fa
:040090009a030000cf
:020000040000fa
:040094009a030000cb
:020000040000fa
:040098009a030000c7
:020000040000fa
:04009c009a030000c3
:020000040000fa
:0400a0009a030000bf
:020000040000fa
:0400a4009a030000bb
:020000040000fa
:0400a8009a030000b7
:020000040000fa
:0400ac009a030000b3
:020000040000fa
:0400b0009a030000af
:020000040000fa
:0400b4009a030000ab
:020000040000fa
:0400b8009a030000a7
:020000040000fa
:0400bc009a030000a3
:020000040000fa
:0400c0009a0300009f
:020000040000fa
:0400c4009a0300009b
:020000040000fa
:0400c8009a03000097
:020000040000fa
:0400cc009a03000093
:020000040000fa
:0400d0009a0300008f
:020000040000fa
:0400d4009a0300008b
:020000040000fa
:0400d8009a03000087
:020000040000fa
:0400dc009a03000083
:020000040000fa
:0400e0009a0300007f
:020000040000fa
:0400e4009a0300007b
:020000040000fa
:0400e8009a03000077
:020000040000fa
:0400ec009a03000073
:020000040000fa
:0400f0009a0300006f
:020000040000fa
:0400f4009a0300006b
:020000040000fa
:0400f8009a03000067
:020000040000fa
:0400fc009a03000063
:020000040000fa
:040100009a0300005e
:020000040000fa
:040104009a0300005a
:020000040000fa
:040108009a03000056
:020000040000fa
:04010c009a03000052
:020000040000fa
:040110009a0300004e
:020000040000fa
:040114009a0300004a
:020000040000fa
:040118009a03000046
:020000040000fa
:04011c009a03000042
:020000040000fa
:040120009a0300003e
:020000040000fa
:040124009a0300003a
:020000040000fa
:040128009a03000036
:020000040000fa
:04012c009a03000032
:020000040000fa
:040130009a0300002e
:020000040000fa
:04013400280300009c
:020000040000fa
:040138009a03000026
:020000040000fa
:04013c009a03000022
:020000040000fa
:040140009a0300001e
:020000040000fa
:040144009a0300001a
:020000040000fa
:040148009a03000016
:020000040000fa
:04014c009a03000012
:020000040000fa
:040150003003000078
:020000040000fa
:040154009a0300000a
:020000040000fa
:040158009a03000006
:020000040000fa
:04015c009a03000002
:020000040000fa
:040160009a030000fe
:020000040000fa
:040164009a030000fa
:020000040000fa
:040168009a030000f6
:020000040000fa
:04016c009a030000f2
:020000040000fa
:040170009a030000ee
:020000040000fa
:040174009a030000ea
:020000040000fa
:040178009a030000e6
:020000040000fa
:04017c009a030000e2
:020000040000fa
:040180009a030000de
:020000040000fa
:040184009a030000da
:020000040000fa
:040188009a030000d6
:020000040000fa
:04018c009a030000d2
:020000040000fa
:040190009a030000ce
:020000040000fa
:040194009a030000ca
:020000040000fa
:040198009a030000c6
:020000040000fa
:04019c009a030000c2
:020000040000fa
:0401a0009a030000be
:020000040000fa
:0401a4009a030000ba
:020000040000fa
:0401a8009a030000b6
:020000040000fa
:0401ac009a030000b2
:020000040000fa
:0401b0009a030000ae
:020000040000fa
:0401b4009a030000aa
:020000040000fa
:0401b8009a030000a6
:020000040000fa
:0401bc009a030000a2
:020000040000fa
:0401c0009a0300009e
:020000040000fa
:0401c4009a0300009a
:020000040000fa
:0401c8009a03000096
:020000040000fa
:0401cc009a03000092
:020000040000fa
:0401d0009a0300008e
:020000040000fa
:0401d4009a0300008a
:020000040000fa
:0401d8009a03000086
:020000040000fa
:0401dc009a03000082
:020000040000fa
:0401e0009a0300007e
:020000040000fa
:0401e4009a0300007a
:020000040000fa
:0401e8009a03000076
:020000040000fa
:0401ec009a03000072
:020000040000fa
:0401f0009a0300006e
:020000040000fa
:0401f4009a0300006a
:020000040000fa
:0401f8009a03000066
:020000040000fa
:0401fc009a03000062
:020000040000fa
:040200009a0300005d
:020000040000fa
:040204009a03000059
:020000040000fa
:040208009a03000055
:020000040000fa
:04020c009a03000051
:020000040000fa
:040210009a0300004d
:020000040000fa
:040214009a03000049
:020000040000fa
:040218009a03000045
:020000040000fa
:04021c009a03000041
:020000040000fa
:040220009a0300003d
:020000040000fa
:040224009a03000039
:020000040000fa
:040228009a03000035
:020000040000fa
:04022c009a03000031
:020000040000fa
:040230009a0300002d
:020000040000fa
:040234009a03000029
:020000040000fa
:040238009a03000025
:020000040000fa
:04023c009a03000021
:020000040000fa
:040240009a0300001d
:020000040000fa
:040244009a03000019
:020000040000fa
:040248009a03000015
:020000040000fa
:04024c009a03000011
:020000040000fa
:040250009a0300000d
:020000040000fa
:040254009a03000009
:020000040000fa
:040258009a03000005
:020000040000fa
:04025c009a03000001
:020000040000fa
:040260009a030000fd
:020000040000fa
:040264009a030000f9
:020000040000fa
:040268009a030000f5
:020000040000fa
:04026c009a030000f1
:020000040000fa
:040270009a030000ed
:020000040000fa
:040274009a030000e9
:020000040000fa
:040278009a030000e5
:020000040000fa
:04027c009a030000e1
:020000040000fa
:040280009a030000dd
:020000040000fa
:040284009a030000d9
:020000040000fa
:040288009a030000d5
:020000040000fa
:04028c009a030000d1
:020000040000fa
:040290009a030000cd
:020000040000fa
:040294009a030000c9
:020000040000fa
:040298009a030000c5
:020000040000fa
:04029c009a030000c1
:020000040000fa
:0402a0009a030000bd
:020000040000fa
:0402a4009a030000b9
:020000040000fa
:0402a8009a030000b5
:020000040000fa
:0402ac009a030000b1
:020000040000fa
:0402b0009a030000ad
:020000040000fa
:0402b4009a030000a9
:020000040000fa
:0402b8009a030000a5
:020000040000fa
:0402bc009a030000a1
:020000040000fa
:0402c0009a0300009d
:020000040000fa
:0402c4009a03000099
:020000040000fa
:0402c8009a03000095
:020000040000fa
:0402cc009a03000091
:020000040000fa
:0402d0009a0300008d
:020000040000fa
:0402d4009a03000089
:020000040000fa
:0402d8009a03000085
:020000040000fa
:0402dc009a03000081
:020000040000fa
:0402e0009a0300007d
:020000040000fa
:0402e4009a03000079
:020000040000fa
:0402e8009a03000075
:020000040000fa
:0402ec009a03000071
:020000040000fa
:0402f0009a0300006d
:020000040000fa
:0402f4009a03000069
:020000040000fa
:0402f8009a03000065
:020000040000fa
:0402fc009a03000061
:020000040000fa
:040300009a0300005c
:020000040000fa
:040304009a03000058
:020000040000fa
:040308009a03000054
:020000040000fa
:04030c009a03000050
:020000040000fa
:040310009a0300004c
:020000040000fa
:040314009a03000048
:020000040000fa
:040318009a03000044
:020000040000fa
:04031c009a03000040
:020000040000fa
:040320009a0300003c
:020000040000fa
:040324009a03000038
:020000040000fa
:040328009a03000034
:020000040000fa
:04032c009a03000030
:020000040000fa
:040330009a0300002c
:020000040000fa
:040334009a03000028
:020000040000fa
:100400004f0021000eff26000e01880000000000b2
:10041000000020000000e000020032000001200087
:100420002002880014000700c40007000000e0005c
:1004300003003a00608b200001002000020037001a
:100440000000200001002000810f70000100320038
:100450000f000700000020000000e0000200320052
:100460000000020000000000720602000000000010
:100470000040da000000fe00800220000000e000e2
:1004800002003200002020009001880000000600d9
:10049000a1028800800478000000eb001f003700f4
:1004a000e284440054a0b4009905ba00e2844400f8
:1004b00054a0b4009906ba00e284440054a0b400e9
:1004c0000006eb00476fde00fd07b200ae018800ba
:1004d000636ce10003003a000ad801000000eb0061
:1004e0000e003700606ce10008003a00004deb00a0
:1004f0000a05e800020039003420ec000af0a000f0
:100500008b05e900f9ff3e00040037006168e10057
:10051000010032000086eb000b00070019c7ba008b
:100520001905ba000e04e00003003a000a00e000da
:10053000dbff3a0000000600fe07b200ae028800b2
:100540008a047800f5ff37000cd0a300e20f4d00bd
:100550001c003b0089027800354dba000a05e8000e
:10056000020039003420ec000af0a0008b05e900fd
:100570000f003200254dba000a05e80002003900dc
:100580003420ec000af0a0008b05e90008003200de
:100590000c00e0000600320015cdba000a05e800a4
:1005a000020039003420ec000af0a0008b05e900bd
:1005b0008984e80054a0b4000b00e000e2ff3a0098
:1005c000000006009902ba00055d78008b05e9007d
:1005d000f7ff3200c82ade00055d78008b05e900d0
:1005e000f3ff32000c00e000f1ff320019ddba0029
:1005f000eeff37003600f800809fbe00829fbe00ed
:10060000849fbe00869fbe003200f8003400f800d0
:1006100010002000a00188000020200000d0fe0073
:100620000000fa000168a900200207000080fa001b
:100630003400f9003200f9004f03be004f02be0043
:100640004f01be004f00be003600f900004006001a
:100650000000fa000868a9000080fa0000400600c7
:100660000000fa000948a9000080fa0000400600d6
:100670000000fa0000e8a9000080fa00004006002f
:100680003600f800809fbe00829fbe00849fbe009f
:10069000869fbe000200fa0002e8a900b073800045
:1006a00055800a00000000000004a20061406000c4
:1006b0000080fb00610060004500dd00b173800038
:1006c0000150a10001007000b0738800214c80002f
:1006d000010f78009429ef008429ef001e007800b4
:1006e0000000e0000c0032001e0078006101b8003c
:1006f0004618dd00ca10de00810070004610dd00e3
:100700000001be00008c2600814720000c0007007d
:1007100000808800118088000080fa004f03be002e
:100720004f02be004f01be004f00be003600f90070
:10073000004006000040da000000fe000000050056
:100740006022b800060220000000d0008180d200a4
:100750000482d2008582d2000000a0000202520072
:1007600083825a00030031000202420083824a0061
:100770000000a1000603e900f3ff3a0000000600b4
:020000040000fa
:100780005379000073740000656d00002072000052
:1007900065610000647900000d0a00000046000059
:1007a00052450000513a0000200000000d0a0000f0
:1007b000004100004e300000203a00002000000000
:1007c000414e0000323300003a20000000000000db
:020000040000fa
:1007d0000000fa0001eba900726ea800706ea8007c
:1007e000020ea800000ea80011588000000620008c
:1007f0000100700010588800b15e800000302000b9
:1008000001007000b05e880002eba9005158800022
:10081000f0ff23000080600050588800515880008d
:10082000f00f2c008080600000302000010070007c
:10083000505888002158800000f82f000080600088
:100840000010a00020588800a100200090210a007c
:10085000060b0000b15e800000f82f0000806000f1
:100860000010a000b05e88008100200090210a00e6
:10087000d40b00000c0ba80071588000c0ff2f00a3
:100880000080600070588800015c800000fe2f002e
:1008900000806000005c8800b15c8000f00f2e00da
:1008a00000806000b05c8800082bef0011608000c1
:1008b000f00f2f008080600000a020000100700079
:1008c00010608800000ca80000eca80001eba80054
:1008d0000000000001608000001020000080600027
:1008e0000000e000fbff320000000000016080001b
:1008f00000002800008060000000e000fbff3200e4
:100900000a0ba8000aeba80080a923000100200020
:10091000080207000080fa00000006000000fa004c
:100920004158800000fc2f00008060004058880083
:10093000090ba800000000008059800061006000e1
:100940000000e000fcff3200090ba900606080009d
:100950000080fa00000006000000fa004158800004
:1009600000fc2f00008060007001b3004058880038
:10097000090ba80000000000915980000008200029
:10098000008060000000e000fbff3200090ba900be
:10099000d06180000080fa00000006000a00fa0022
:1009a00030079800410798000000eb00000f780026
:1009b0004e0090000000e900100798001600370074
:1009c0001e007800be00900000804000904078003b
:1009d000414798001e007800be0090000080400053
:1009e0009e0090003e0190008100410091407800ff
:1009f000014878001e009000be009000008040007a
:100a0000ce409000014878001e0fe8001e009000c4
:100a10000000e900100798001e0090009e0078007a
:100a2000808f5000e6ff35000080fa0000000600cd
:100a30000a00fa0020079800310798000000eb0038
:100a4000000f78000040eb00204798002e00900037
:100a50000000e00008003a003e00900001c3b3002f
:100a6000014878003e0090000000e8008040eb0064
:100a700001487800320037002e0090000000e000ae
:100a80001b003d0010c0b300204798002e009000ce
:100a90000000ea0020079800150037001e007800cb
:100aa000be00900080804000410798002e01900019
:100ab000a100200081017800050009000301d80091
:100ac000814078000143b0004e009000014878005a
:100ad0001e0fe8002e019000706626000090b900fd
:100ae000c288de004f90de00008050002007980092
:100af0002e0090000000e000e8ff3a002e40900039
:100b00000004e000060032001e007800be009000e5
:100b100000804000d1c2b300014878001e0fe800f9
:100b20001e007800be009000008040008040eb0076
:100b3000014878009e0078003e00900097ff070073
:100b40000080fa00000006000000fa001148800052
:100b5000f0ff2100008060001048880011488000ec
:100b6000f00f2e00008060001048880011488000bf
:100b7000f0f02f0000806000104888000080fa002c
:100b8000000006000000fa00efff07001fcea900da
:100b90002be3a9005119800070fe2f000080600037
:100ba0000030a000501988005119800080ff2f00ec
:100bb000008060005019880091198000f0fc2f001f
:100bc000008060000040a000901988003263a800f7
:100bd0003243a900c0d42100901a880060ea2000a6
:100be000701a8800a119800070fe2f00008060003c
:100bf0000030a000a01988000868a9002868a80093
:100c000001438000f0ff2800808060000000260083
:100c100001007000004388002be3a8000080fa0068
:100c2000000006000000fa00c7ff07003b8ea90085
:100c30003baea900a5e4a9002125800070fe2f008d
:100c4000008060000030a000202588002125800061
:100c500080ff2f00008060000020a0002025880079
:100c600061258000f0fc2f00008060006025880076
:100c7000aa24ef00ac64a800ac44a800ac24a900ee
:100c8000ac04a90010012000b0268800100120004b
:100c9000a026880060ea20006026880030752000c9
:100ca000402688007125800070fe2f0000806000c3
:100cb0000030a000702588000948a9002948a80034
:100cc00021438000f08f2f008080600000602000b2
:100cd0000100700020438800a5e4a8000080fa000d
:100ce000000006001400fa007c000700f80007006e
:100cf0003c000700a3ff0700caff0700d60007005b
:100d0000a6000700b2fe0700003c28005a000700ba
:100d10000060fe00a17380000008200000806000d9
:100d20000000e00002003a0076cea8000100370083
:100d300076cea9000080800011808000000078003d
:100d4000e40047003aff0700f03c28004a00070093
:100d50006400470048000700603d28004600070087
:100d600000a32100e1112000f20007000060fe0056
:100d7000eafe0700000f7800f7fe07001007980052
:100d80001e007800e400470029ff0700903d28007e
:100d9000390007006400470037000700603d280065
:100da0003500070000a32100e1112000e100070049
:100db0001e009000e40047001dff0700003e2800d1
:100dc0002d000700640047002b000700603d28004d
:100dd0002900070000a32100e1112000d500070031
:100de000cbff37000000fa00801e200000128800b0
:100df000c111800000ff2f0000806000c01188003a
:100e000038c2a90038e2a90039e2a80038a2a80037
:100e10003882a8003c22ef000168a9002168a800e0
:100e200021428000f0ff28000080600000d0a00078
:100e3000204288000080fa00000006000200fa004c
:100e4000004f7800000000000140800000002100f9
:100e5000008060000000e000fbff32001e00fb008d
:100e600040128800804f220011002000b1000700ce
:100e70000080fa00000006000200fa00000f78006f
:100e8000040037001e007800104078001e0fe800b4
:100e9000eaff07001e007800104078000004e00020
:100ea000f8ff3a000080fa00000006000200fa0095
:100eb000e0118000620060000000e00001003200ec
:100ec0003c22a90020128000004f78001e407800cc
:100ed000daff07000080fa00000006000000fa00b8
:100ee000317c800000fc2f00008060000000a0002a
:100ef000307c880061092000b0210a00880f0000c2
:100f0000517c8000f0f82f00008060000060a0009d
:100f1000507c8800517c800080ff2f0000806000a2
:100f20000000a000507c88003200200080072000d4
:100f3000a109200053f820008049780081497800f9
:100f400082497800207c8000000178000200a00027
:100f5000600420007105200043f8200080497800db
:100f6000814978008249780000000000207c8000e0
:100f7000610060000000e000fcff3a00000000009b
:100f8000217c800000022000008060000000e00062
:100f9000fbff32000080fa00000006000000fa00ab
:100fa000564ea8000000eb0051052000b146880015
:100fb000a10a2000b14688000068880020c4b30060
:100fc0000dedb7000080200051052000b1468800db
:100fd000a10a2000b14688000068880075e9a900d0
:100fe0007489a800a14b800000ff2f0000806000e2
:100ff0000000a000a04b8800a14b8000f08f2f00c4
:1010000000806000a04b8800a14b8000000c2000f5
:1010100001007000a04b8800d14b800080ff2f00a2
:1010200000806000d04b88007769a90002e8a90021
:1010300022e8a80051428000f0ff28008080600074
:1010400000002600010070005042880075e9a800e9
:101050000080fa00000006000000fa0051e9a90033
:101060005089a900814a800000ff2f0000806000a5
:10107000804a8800814a8000f08f2f000080600045
:10108000804a880050a9a900814a8000000c2000f5
:1010900001007000804a880010b72000204b8800b3
:1010a0006029ef0000e8a90020e8a80011428000b4
:1010b000f0ff280080806000000025000100700023
:1010c0001042880051e9a8000080fa0000000600e4
:1010d0000000fa0072cea90072aea90072eea8005c
:1010e0000000eb0051052000b1468800a10a200055
:1010f000b14688000068880030c4b30028edb7000e
:10110000216d800000fc2f00008060000000a00026
:10111000206d88000080200051052000b146880025
:10112000a10a2000b1468800006888000080fa000b
:0411300000000600b5
:020000040000fa
:10113400f03fb1000180b10006003500ee03090064
:1011440000000000403fb1000180b100fbff3d0002
:101154001000b000203fb0000200350000800900fc
:0811640000000000000006007d
:020000040000fa
:10116c0000100000040000008000000000000000df
:020000040000fa
:020000040005f5
:047e0000ffffff0081
:020000040000fa
:020000040005f5
:047e2000ffffff0061
:020000040000fa
:020000040005f5
:047e300078ffff00d8
:020000040000fa
:020000040005f5
:047e38007dffff00cb
:020000040000fa
:020000040005f5
:047e4000ee83ff00ce
:020000040000fa
:020000040005f5
:047e4800ffffff0039
:020000040000fa
:020000040005f5
:047e5000ddffff0053
:020000040000fa
:020000040005f5
:047e58000000ff0027
:020000040000fa
:020000040005f5
:047e60000000ff001f
:020000040000fa
:020000040005f5
:047e68000000ff0017
:020000040000fa
:020000040005f5
:047e70000000ff000f
:020000040000fa
:020000040005f5
:047e7800ffffff0009
:020000040000fa
:020000040005f5
:047e8000fffcff0004
:020000040000fa
:020000040005f5
:047e8800ffffff00f9
:020000040000fa
:020000040005f5
:047ff800ffffff0088
:00000001FF
